:020000040800F2
:10000000580A00209D010008352A00084D270008E5
:10001000092A0008E501000821320008000000005C
:10002000000000000000000000000000392A000865
:10003000D707000800000000372A00083B2A000804
:10004000B7010008B7010008B7010008B7010008B0
:10005000B7010008B7010008B7010008B7010008A0
:10006000B7010008B7010008B7010008B701000890
:100070008507000891070008B7010008B7010008CC
:100080009D070008A9070008B7010008B70100088C
:10009000B7010008B7010008B7010008B701000860
:1000A000B7010008B7010008B7010008B701000850
:1000B000B7010008B7010008B7010008B701000840
:1000C000B7010008B7010008B7010008B701000830
:1000D000B7010008B701000809320008153200080E
:1000E000B7010008B7010008B7010008B701000810
:1000F000B7010008B7010008B7010008B701000800
:10010000000000000000000000000000B70100082F
:10011000B7010008B7010008292B0008B701000843
:10012000B7010008B7010008B7010008B7010008CF
:10013000B7010008B701000800000000000000003F
:10014000B7010008B7010008B7010008000000006F
:10015000000000000000000000000000000000009F
:100160000000000000000000B7010008B70100080F
:10017000B7010008000000000000000000000000BF
:1001800000000000B7010008DFF80CD000F018F8FC
:100190000048004741320008580A002006488047BE
:1001A00006480047FEE7FEE7FEE7FEE7FEE7FEE75C
:1001B000FEE7FEE7FEE7FEE7C12A00088901000826
:1001C000064C074D06E0E06840F0010394E80700A4
:1001D00098471034AC42F6D3FFF7DAFFC83800086E
:1001E000E8380008FEE700002DE9F0473D4F002405
:1001F00004EB440000EBC400012257F82010002358
:1002000021F0080147F820101146204600F0F4F9CB
:10021000641C14F0FF04EBD04FF4FA6000F0DCFA39
:10022000DFF8C480DFF8C490002606EB4600002506
:1002300000EBC604304600F033FA17F82400C0077C
:1002400039D007EB840090ED030A10EE101A4945EF
:1002500002DB0169414506D257F8241040F6080236
:10026000114347F8241010EE101A214A914203DC82
:10027000204A0169914206D957F8241041F2080238
:10028000114347F82410D0ED040A30EE200A10EE96
:10029000100A404503D810EE100A484506DD57F80D
:1002A000240042F20801084347F8240017F824000C
:1002B000C00704D009E06D1CEDB2022DBAD357F887
:1002C000240040F0080047F8240000231A460121CA
:1002D000304600F091F9761C16F0FF06A5D0BDE877
:1002E000F08700000C000020000048C200004842D7
:1002F00000007A4300007AC32DE9F05F9A462DEDA5
:10030000028B934600EB4002284B02EBC002DDE972
:100310000C9853F82260002444F20105B0EE408AA4
:10032000B54304D00020BDEC028BBDE8F09F03EB89
:1003300082021F4B128D1A601C4F1E4D0C3FA5F5FB
:10034000807638700020B870FA78DC200AB1287006
:1003500000E030700120B870084603F053FA5846A8
:1003600003F050FA504603F04DFA484603F04AFABB
:10037000404603F00DFAB0EE480A03F01DFAF87893
:1003800038B10020295C401C4C40C0B21A28F9D971
:1003900005E0315C401C4C40C0B21A28F9D9204617
:1003A00003F0F6F903F050FA0120BCE70C0000203E
:1003B000140C00484C0200202DE9FF5F9B462DEDF8
:1003C000020B00EB40022D4B02EBC0022DED028B25
:1003D0000024DDE9139853F8226044F20105DDF8AA
:1003E00048A0B0EE408AB54305D00020BDEC028B9A
:1003F00006B0BDE8F09F03EB8202214B128D1A601C
:100400001E4F204D0C3FA5F5807638700020B87047
:10041000FA78DC200AB1287000E030700120B87052
:10042000084603F0EFF9069803F0ECF9584603F09C
:10043000E9F9504603F0E6F9484603F0A9F9B0EEB1
:10044000480A03F0B9F9404603F0A2F9F87838B148
:100450000020295C401C4C40C0B21B28F9D905E0A3
:10046000315C401C4C40C0B21B28F9D9204603F037
:100470008FF903F0E9F90120B8E700000C00002033
:10048000140C00484C0200202DE9F041904600EB8E
:1004900040021F4B02EBC002002453F8226044F2DA
:1004A0000105B54302D00020BDE8F08103EB8202D4
:1004B000184B128D1A60164F174D0C3FA5F580761C
:1004C00038700020B870FA78DD200AB1287000E09A
:1004D00030700120B870084603F05AF9404603F026
:1004E00091F9F87838B10020295C401C4C40C0B22A
:1004F0000628F9D905E0315C401C4C40C0B2062802
:10050000F9D9204603F044F903F09EF90120CBE726
:100510000C000020140C00484C0200202DE9F0478C
:100520002A48006840684FF001084042C7B2DFF82F
:10053000A0900026274C43E019F80100637813B11E
:10054000012B3AD107E0AB2837D384F801806171E1
:1005500084F8068031E0030628D5AB2803D3617107
:1005600084F8068029E0802826D1607919F80010E7
:10057000FF2902D0FE2915D01EE00546401CC0B25E
:1005800002F0B8FE1448AD1D80ED000AE8B202F09A
:10059000B1FE124880ED000A1148416981F0100156
:1005A000416109E0A17903F077F805E0A079401CEA
:1005B000C0B2A071C82800D966702079401C207193
:1005C0002179B942B8D1BDE8F0870000E0050020EC
:1005D0004C000020000000203C00002040000020D3
:1005E000001000484FF480720149024802F01EB822
:1005F0004C000020F8040020F0B500EB4004274E2A
:1006000004EBC00006EB80040029E569A78A69694C
:1006100028D03943696156F8201041F4804146F8EA
:10062000201032B316F8201009070AD4216A4A694B
:10063000E58AAA434A6156F8201041F4004146F881
:10064000201003B316F8201009070AD4616A4A691A
:10065000238B1A434A6156F8201041F4803146F842
:100660002010F0BDB943696156F8201021F4804193
:10067000D5E7216A4A69E58A2A434A6156F820107B
:1006800021F40041DBE7616A4A69238B9A434A619E
:1006900056F8201021F48031E1E700000C00002022
:1006A0002DE9F04700EB4001DFF8CC9001EBC004EE
:1006B00009EB8401314A098D00251160A9F10C066E
:1006C0002F4F3070B570F278FE21A7F580780AB10F
:1006D000397001E088F800100121B17003F058F87A
:1006E000F07800284FF0000006D0395C401C4D40E7
:1006F000C0B20128F9D906E04246115C401C4D40C9
:10070000C0B20128F9D9284603F042F8FFF706FFE6
:1007100003F09AF8B0684F4620F00300B06059F833
:100720002400002520F0060049F824004FF47A78D0
:10073000404600F063F8FFF7F1FEB068C10704D04F
:1007400057F8240040F0010005E0800709D557F86C
:10075000240040F0040047F82400C82D05D2BDE86D
:10076000F0876D1CEDB2C82DE2D957F8240040F097
:10077000020047F82400F2E70C000020140C0048A7
:100780004C020020014800F047B800001C06002081
:10079000014800F041B80000E0050020014800F0E9
:1007A0003BB8000068050020014800F035B80000A3
:1007B000A4050020D0F800C0CCF804304368102B0A
:1007C00004D0036899600068C260704703689A604B
:1007D0000068C160704770470749884200D90846E1
:1007E00041F27071484304E000BF00BF00BF00BF8A
:1007F00000BF401EF8D27047A086010000EB400009
:10080000400004E000BF00BF00BF00BF00BF401EAB
:10081000F8D27047FEE700002DE9F05F0446F74983
:100820002068F74DF74EF84FDFF8E083DFF8E093EC
:10083000DFF8E0A3DFF8E0B3884235D9F7490A686A
:10084000A84201D108212DE0B04201D1802129E048
:10085000B84202D14FF4006124E0404502D14FF488
:1008600000411FE0484502D14FF400211AE05045F5
:1008700002D14FF4000115E0584501D1082111E0E3
:10088000E749884201D180210CE0E649884201D144
:10089000C11407E0E449884202D14FF4004101E06D
:1008A0004FF40021114039E0E0490A68A84201D123
:1008B000082132E0B04201D180212EE0B84202D1BD
:1008C0004FF4006129E0404502D14FF4004124E09B
:1008D000484502D14FF400211FE0504502D14FF4AA
:1008E00000011AE0C549884201D1010515E05845CB
:1008F00001D1082111E0CA49884201D180210CE0D0
:10090000C849884201D1C11407E0C749884202D1D1
:100910004FF4004101E04FF40021114081B3016820
:1009200011F0080F2CD0016821F008010160B349D3
:100930002068884235D9A84201D108202EE0B04273
:1009400001D180202AE0B84202D14FF4006025E0B6
:10095000404502D14FF4004020E0484502D14FF419
:1009600000201BE0504502D14FF4000016E058452E
:1009700001D1082012E0AA49884202D180200DE06E
:1009800056E0A849884201D1C01407E0A649884230
:1009900002D14FF4004001E04FF40020A449086068
:1009A00038E0A84201D1082032E0B04201D18020D5
:1009B0002EE0B84202D14FF4006029E0404502D158
:1009C0004FF4004024E0484502D14FF400201FE0DE
:1009D000504502D14FF400001AE0884202D14FF096
:1009E000006015E0584501D1082011E08C4988428B
:1009F00001D180200CE08B49884201D1C01407E06E
:100A00008949884202D14FF4004001E04FF40020B0
:100A100086494860A06B40F00100A063042084F880
:100A20002100002084F82000216B09B1204688476E
:100A300072492068884235D978490A68A84201D1AC
:100A400004212DE0B04201D1402129E0B84202D179
:100A50004FF4806124E0404502D14FF480411FE013
:100A6000484502D14FF480211AE0504502D14FF49D
:100A7000800115E0584501D1042111E06849884200
:100A800001D140210CE06749884201D1011507E0FE
:100A90006549884202D14FF4804101E04FF4802142
:100AA000114039E061490A68A84201D1042132E0CD
:100AB000B04201D140212EE0B84202D14FF4806112
:100AC00029E0404502D14FF4804124E0484502D15D
:100AD0004FF480211FE0504502D14FF480011AE00D
:100AE0004649884201D1C10415E0584501D104218D
:100AF00011E04B49884201D140210CE0494988422C
:100B000001D1011507E04849884202D14FF48041E4
:100B100001E04FF48021114079B3016811F0040F16
:100B20002BD0016811F0200F03D1016821F00401DE
:100B3000016032492068884235D9A84201D1042099
:100B40002EE0B04201D140202AE0B84202D14FF459
:100B5000806025E0404502D14FF4804020E04845C8
:100B600002D14FF480201BE0504502D14FF48000A9
:100B700016E0584502D1042012E071E0284988426D
:100B800001D140200CE02749884201D1001507E03F
:100B90002549884202D14FF4804001E04FF4802083
:100BA0002349086055E0A84201D104204FE0B0423B
:100BB00001D140204BE0B84202D14FF4806046E0C2
:100BC000404502D14FF4804041E0484502D14FF406
:100BD00080203CE0504502D14FF4800037E088424D
:100BE00002D14FF0806032E0584501D104202EE060
:100BF0000B4988421ED1402029E0000080000240BD
:100C0000080002401C000240300002404400024044
:100C1000580002406C0002400804024000040240F8
:100C20001C04024030040240440402400000024020
:100C3000040402408D49884201D1001507E08C4927
:100C4000884202D14FF4804001E04FF4802089496E
:100C50004860112084F82100E16A09B120468847E4
:100C6000854A2068904235D984490B68A84201D151
:100C700002212DE0B04201D1202129E0B84202D169
:100C80004FF4007124E0404502D14FF400511FE0C1
:100C9000484502D14FF400311AE0504502D14FF4DB
:100CA000001115E0584501D1022111E07449884234
:100CB00001D120210CE06D49884201D1411507E0A6
:100CC0006B49884202D14FF4005101E04FF40031EA
:100CD000194039E067490B68A84201D1022132E08E
:100CE000B04201D120212EE0B84202D14FF4007170
:100CF00029E0404502D14FF4005124E0484502D19B
:100D00004FF400311FE0504502D14FF400111AE0BA
:100D1000904202D14FF0007115E0584501D10221F7
:100D200011E05749884201D120210CE04F49884207
:100D300001D1411507E04E49884202D14FF40051DC
:100D400001E04FF400311940002972D0016811F020
:100D5000020F6ED0016811F0200F03D1016821F05D
:100D6000020101602068904234D9A84201D10220DA
:100D70002DE0B04201D1202029E0B84202D14FF449
:100D8000007024E0404502D14FF400501FE0484578
:100D900002D14FF400301AE0504502D14FF4001058
:100DA00015E0584501D1022011E03549884201D1B2
:100DB00020200CE02D49884201D1401507E02C4944
:100DC000884202D14FF4005001E04FF400302D4929
:100DD000086039E0A84201D1022033E0B04201D1DD
:100DE00020202FE0B84202D14FF400702AE04045A5
:100DF00002D14FF4005025E0484502D14FF40030B5
:100E000020E0504502D14FF400101BE0904202D187
:100E10004FF0007016E0584501D1022012E0184949
:100E2000884201D120200DE01049884202D14015AE
:100E300008E018E00E49884202D14FF4005001E06A
:100E40004FF400300B494860A06BA063012084F888
:100E50002100002084F82000A16A002903D0204648
:100E6000BDE8F05F0847BDE8F09F00003004024095
:100E7000440402400000024080000240000402409E
:100E80001C0402400404024030B4002804D090F84E
:100E90002110002319B104E030BC0120704780F814
:100EA0002030022180F8211001680A686FF30D12CA
:100EB000D0F804C0846805694CEA040CC4682C436B
:100EC0004CEA040C44694CEA040C84694CEA040CB6
:100ED000C4694CEA040C4CEA02020A6083630121F3
:100EE00080F8211030BC0020704710B5044694F8FB
:100EF0002000012825D0012084F82000022084F859
:100F000021002068D0F800C02CF0010CC0F800C00F
:100F10002046FFF74FFC2068016841F002010160A4
:100F20002068016841F0040101602068016841F017
:100F3000080101602068016841F0010101600020A2
:100F400010BD022010BD00002DE9F84F00220B68F3
:100F5000002B7CD0DFF8C891DFF8C0814FF0030E82
:100F60000F2709F1040A0123D1F800C003FA02F5A2
:100F70000CEA0503002B6BD0D1F804C0BCF1020FC2
:100F800002D0BCF1120F12D14FEAD20C00EB8C0C44
:100F9000DCF820605407E40E07FA04FB26EA0B068F
:100FA000D1F810B00BFA04F43443CCF820400668B2
:100FB0004FEA420C0EFA0CF4A64391F804B00BF081
:100FC000030B0BFA0CFB4BEA060606604E68012E7B
:100FD00005D0022E03D0112E01D0122E11D1866819
:100FE000A643D1F80CB00BFA0CFB4BEA0606866060
:100FF000466826EA05050E79C6F300169640354385
:101000004560C56825EA04048D6805FA0CFC4CEAC5
:10101000040CC0F80CC0D1F804C01CF0805F67D08D
:10102000D8F818C04CF0010CC8F818C0D8F818C08F
:101030000CF0010CCDF800C022F0030C0CF180453F
:1010400005F58035D5F808C09407240F01E054E079
:101050004EE007FA04F62CEA0606B0F1904F51D0A4
:10106000A0F1904CBCF5806C49D0BCF5806C4CD0A4
:10107000BCF5806C4CD0BCF5806C4CD04FF0050CAE
:101080000CFA04FC4CEA060CC5F808C0D9F800C0FC
:101090002CEA030C4C6814F4803F01D04CEA030C9A
:1010A000C9F800C0DAF800C02CEA030C4C6814F44C
:1010B000003F01D04CEA030CCAF800C0194CD4F828
:1010C00000C02CEA030C4D6815F4801F01D04CEAD7
:1010D000030CC4F800C0144CD4F800C02CEA030C74
:1010E0004D6815F4001F01D04CEA030CC4F800C091
:1010F000521C0B68D3407FF436AFBDE8F88F4FF039
:10110000010CBDE74FF0000CBAE74FF0020CB7E757
:101110004FF0030CB4E74FF0040CB1E700100240AD
:1011200000040140080401400C040140002A01D0E1
:101130008161704781627047014800687047000014
:101140004800002002480168491C01607047000007
:101150004800002010B50748016841F01001016007
:10116000032000F095F8002000F006F800F018F8D1
:10117000002010BD0020024010B5044607484FF47F
:101180007A720068B0FBF2F000F0A8FF002221465E
:10119000501E00F049F8002010BD0000440000205F
:1011A0001A4808B5816941F001018161806900F048
:1011B00001000090032000F06BF8002211466FF050
:1011C0000B0000F031F8002211466FF00A0000F029
:1011D0002BF8002211466FF0090000F025F80022DC
:1011E0001146501F00F020F800221146101F00F099
:1011F0001BF800221146901E00F016F80022BDE8F0
:1012000008401146501E00F00FB8000000100240C8
:1012100000F01F01012202FA01F14009800000F1F3
:10122000E020C0F80011704710B4184B1B68C3F3DE
:101230000223C3F1070CBCF1040F01D94FF0040CD9
:101240001C1D072C01D2002300E0DB1E012404FA40
:101250000CFCACF1010C0CEA0101994004FA03F317
:101260005B1E1A401143002808DA00F00F0000F15D
:10127000E020090180F8141D10BC704700F1E02047
:10128000090180F8001410BC704700000CED00E06C
:1012900000F00700064A11684FF6FF03194041EAC3
:1012A000002040F0FD7040F080601060704700004A
:1012B0000CED00E02DE9F84F04469F4D206810F436
:1012C000803F71D00026E86910F0805F08D1E8699E
:1012D00040F08050E861E86900F0805000900126FD
:1012E000964F386810F4807F17D1386840F48070CA
:1012F0003860FFF721FF8046386810F4807F0CD1FA
:10130000FFF71AFFA0EB0800642802D90320BDE80C
:10131000F88F386810F4807FF2D0286A00F44070AB
:10132000002878D0A18801F44071814273D0286AE6
:1013300020F440704FF4803191FAA1F2B2FA82F2B7
:10134000920002F1844202F584024FF00109C2F8D2
:10135000009491FAA1F10022B1FA81F1890001F122
:10136000844101F58401C1F80024286210F0010FC6
:1013700051D0FFF7E1FE07464FF0020898FAA8F0B7
:10138000B0FA80F040F04000B9EB501F01D128685E
:101390000CE098FAA8F0B0FA80F040F04000B8EB0A
:1013A000501F02D1286A01E041E0686A98FAA8F16A
:1013B000B1FA81F101F01F0109FA01F108422AD1C5
:1013C00041F2883AFFF7B8FEC01B504502D903200E
:1013D000BDE8F88F98FAA8F0B0FA80F040F040002D
:1013E000B9EB501F01D128680BE098FAA8F0B0FAC9
:1013F00080F040F04000B8EB501F01D1286A00E0B7
:10140000686A98FAA8F1B1FA81F101F01F0109FAAE
:1014100001F10842D6D0286A616820F44070084380
:101420002862012E03D1E86920F08050E86120781D
:1014300010F0010F05D0286BA16820F003000843CD
:101440002863207810F0020F05D0286BE16820F4A3
:10145000403008432863207810F0040F05D0286B33
:10146000216920F4402008432863207810F0200FE1
:1014700005D0286BE16920F010000843286320683C
:1014800010F4003F05D06868A16B20F48000084389
:101490006860207810F0400F05D0286B216A20F09A
:1014A000200008432863207810F0080F05D0286B2F
:1014B000616920F4401008432863207810F0100F71
:1014C00005D0286BA16920F44000084328632088D8
:1014D00010F4007F05D06868E16A20F4000008433A
:1014E0006860207810F0800F05D0E86A616A20F407
:1014F000F8700843E862208810F4807F05D0E86A1D
:10150000A16A20F478500843E862208810F4805FD4
:1015100005D0286B216B20F4807008432863208855
:1015200010F4005F05D0286B616B20F40070084355
:1015300028630020BDE8F88F0010024000700040D2
:101540002DE9F04704460D46DFF80082D8F8000088
:1015500000F00700A8420FD2D8F8000020F00700E2
:101560002843C8F80000D8F8000000F00700A8429F
:1015700002D00120BDE8F0872078754F10F0020FEF
:1015800005D07868A16820F0F000084378602078E2
:1015900010F0010F7AD06068012301280CD00228D6
:1015A00024D0022292FAA2F1B1FA81F141F0200195
:1015B000490935D0396834E04FF4003292FAA2F18B
:1015C000B1FA81F141F02001490901D0396800E008
:1015D000796A92FAA2F2B2FA82F202F01F0203FAD8
:1015E00002F211422AD10120BDE8F0874FF00072CB
:1015F00092FAA2F1B1FA81F141F02001490901D03A
:10160000396800E0796A92FAA2F2B2FA82F202F044
:101610001F0203FA02F2114210D10120BDE8F08747
:10162000796A92FAA2F2B2FA82F202F01F0203FA87
:1016300002F2114202D10120BDE8F087796821F061
:10164000030108437860FFF777FD0646606841F2C2
:10165000883901280DD002281FD0786810F00C0FAF
:1016600032D0FFF769FD801B484529D90320BDE82A
:10167000F087786800F00C00042825D0FFF75CFDA7
:10168000801B484503D90320BDE8F0871CE078683B
:1016900000F00C000428F1D116E0786800F00C008E
:1016A000082811D0FFF748FD801B484502D90320C8
:1016B000BDE8F087786800F00C000828F2D103E05C
:1016C000786810F00C0FCCD1D8F8000000F00700BB
:1016D000A8420FD9D8F8000020F007002843C8F826
:1016E0000000D8F8000000F00700A84202D0012056
:1016F000BDE8F087207810F0040F05D07868E16825
:1017000020F4E06008437860207810F0080F06D0DD
:101710007868216920F4605040EAC100786000F0E8
:101720004FF87968F02292FAA2F201F0F001B2FAD1
:1017300082F2D140074A515CC84007490860002046
:10174000FFF71AFD0020BDE8F087000000200240EE
:101750000010024090380008440000200148006852
:10176000704700004400002000B5FFF7F7FF07496D
:1017700049684FF4E06292FAA2F201F4E061B2FA31
:1017800082F2D140024A515CC84000BD00100240C4
:10179000A038000800B5FFF7E1FF074949684FF49A
:1017A000605292FAA2F201F46051B2FA82F2D14090
:1017B000024A515CC84000BD00100240A038000839
:1017C000174B5968174801F00C02042A24D0082A44
:1017D00022D14FF4701C9CFAACFC01F47012BCFADC
:1017E0008CFC22FA0CF2DFF840C01CF80220DB6A05
:1017F0004FF00F0C9CFAACFC03F00F03BCFA8CFC0E
:1018000023FA0CF3DFF824C01CF8033011F4803FF6
:1018100003D0B0FBF3F05043704705485043704786
:101820000010024000127A00A8380008B8380008FA
:1018300000093D002DE9F84F0446F94D20784FF09E
:10184000010610F0010F79D06868770400F00C00F1
:10185000042808D0686800F00C0008281ED16868C9
:1018600010F4803F1AD097FAA7F0B0FA80F040F059
:101870002000400901D0286800E0686A97FAA7F1C3
:10188000B1FA81F101F01F0106FA01F1084255D0C9
:101890006068002852D10120BDE8F88F6068B0F57B
:1018A000803F20D020B3B0F5A02F2AD0286820F4A4
:1018B00080302860286820F480202860E86AA168C9
:1018C00020F00F000843E8626068C0B3FFF734FC03
:1018D000804697FAA7F0B0FA80F040F02000400967
:1018E00018D0286817E0286840F480302860E5E7C1
:1018F000286820F480302860286820F48020286040
:10190000DCE7286840F480202860286840F48030B4
:101910002860D3E7686A97FAA7F1B1FA81F101F07C
:101920001F0106FA01F1084256D1FFF705FCA0EBB2
:101930000800642804D90320BDE8F88F4CE015E0C6
:1019400097FAA7F0B0FA80F040F02000400901D0EB
:10195000286800E0686A97FAA7F1B1FA81F101F00E
:101960001F0106FA01F10842DFD035E0FFF7E4FB82
:10197000804697FAA7F0B0FA80F040F020004009C6
:1019800001D0286800E0686A97FAA7F1B1FA81F1FE
:1019900001F01F0106FA01F108421DD0FFF7CCFB50
:1019A000A0EB0800642802D90320BDE8F88F97FA5D
:1019B000A7F0B0FA80F040F02000400901D028687C
:1019C00000E0686A97FAA7F1B1FA81F101F01F010E
:1019D00006FA01F10842E1D120784FF0000910F039
:1019E000020F4FF002074ED068684FF0F80A10F06F
:1019F0000C0F21D0686800F00C00082803D168683B
:101A000010F4803F18D0206988B396FAA6F0B0FA97
:101A100080F0800000F1844000F584000660FFF74C
:101A20008BFB804697FAA7F0B0FA80F040F02000D8
:101A3000400929D0286828E097FAA7F0B0FA80F08A
:101A400040F02000400901D0286800E0686A97FA59
:101A5000A7F1B1FA81F101F01F0106FA01F1084284
:101A600006D02069012803D00120BDE8F88F40E0AE
:101A700028689AFAAAF26169B2FA82F220F0F800B4
:101A800091400843286075E0686A97FAA7F1B1FAB7
:101A900081F101F01F0106FA01F108421DD1FFF7A3
:101AA0004BFBA0EB0800022802D90320BDE8F88F09
:101AB00097FAA7F0B0FA80F040F02000400901D07A
:101AC000286800E0686A97FAA7F1B1FA81F101F09D
:101AD0001F0106FA01F10842E1D028689AFAAAF239
:101AE00020F0F8016069B2FA82F290400843286061
:101AF00040E096FAA6F0B0FA80F0800000F1844051
:101B000000F58400C0F80090FFF716FB804697FAB6
:101B1000A7F0B0FA80F040F02000400901D028681A
:101B200000E0686A97FAA7F1B1FA81F101F01F01AC
:101B300006FA01F108421DD0FFF7FEFAA0EB0800FB
:101B4000022802D90320BDE8F88F97FAA7F0B0FA6F
:101B500080F040F02000400901D0286800E0686A69
:101B600097FAA7F1B1FA81F101F01F0106FA01F12C
:101B70000842E1D1207810F0080F5ED0A069B8B318
:101B800096FAA6F0B0FA80F0800000F1844000F5EB
:101B90008400C0F88064FFF7CFFA804697FAA7F078
:101BA000B0FA80F040F06000B6EB501F01D1286819
:101BB0000BE097FAA7F0B0FA80F040F06000B7EBC6
:101BC000501F01D1286A00E0686A97FAA7F1B1FABC
:101BD00081F101F01F0106FA01F108422DD1FFF752
:101BE000ABFAA0EB0800022803D90320BDE8F88F68
:101BF00024E097FAA7F0B0FA80F040F06000B6EB6E
:101C0000501F01D128680EE097FAA7F0B0FA80F0D3
:101C100040F06000B7EB501F04D1286A03E00000D9
:101C200000100240686A97FAA7F1B1FA81F101F059
:101C30001F0106FA01F10842D1D058E096FAA6F049
:101C4000B0FA80F0800000F1844000F58400C0F814
:101C50008094FFF771FA804697FAA7F0B0FA80F007
:101C600040F06000B6EB501F01D128680BE097FAF6
:101C7000A7F0B0FA80F040F06000B7EB501F01D140
:101C8000286A00E0686A97FAA7F1B1FA81F101F0D9
:101C90001F0106FA01F1084229D0FFF74DFAA0EB27
:101CA0000800022802D90320BDE8F88F97FAA7F0B0
:101CB000B0FA80F040F06000B6EB501F01D1286808
:101CC0000BE097FAA7F0B0FA80F040F06000B7EBB5
:101CD000501F01D1286A00E0686A97FAA7F1B1FAAB
:101CE00081F101F01F0106FA01F10842D5D12078F7
:101CF00010F0040F74D04FF00008E86910F0805F16
:101D000009D1E86940F08050E861E86900F080504E
:101D100000904FF00108DFF8A0B3DBF8000010F4EA
:101D2000807F1BD1DBF8000040F48070CBF800000E
:101D3000FFF702FA8246DBF8000010F4807F0DD135
:101D4000FFF7FAF9A0EB0A00642802D90320BDE8E6
:101D5000F88FDBF8000010F4807FF1D0E0680128F4
:101D60001CD000B3052827D0286A20F00100286283
:101D7000286A20F004002862E06841F2883B80B3C2
:101D8000FFF7DAF9824697FAA7F0B0FA80F040F050
:101D90004000B6EB501F18D1286824E0286A40F0B4
:101DA00001002862E8E7286A20F001002862286A1A
:101DB00020F004002862DFE7286A40F0040028626F
:101DC000286A40F001002862D6E797FAA7F0B0FA37
:101DD00080F040F04000B7EB501F03D1286A02E0CA
:101DE0008BE035E0686A97FAA7F1B1FA81F101F06A
:101DF0001F0106FA01F1084278D1FFF79DF9A0EB27
:101E00000A00584502D90320BDE8F88F97FAA7F0D9
:101E1000B0FA80F040F04000B6EB501F01D12868C6
:101E20000BE097FAA7F0B0FA80F040F04000B7EB73
:101E3000501F01D1286A00E0686A97FAA7F1B1FA49
:101E400081F101F01F0106FA01F10842D5D04DE001
:101E5000FFF772F9824697FAA7F0B0FA80F040F0E7
:101E60004000B6EB501F01D128680BE097FAA7F0AD
:101E7000B0FA80F040F04000B7EB501F01D1286A63
:101E800000E0686A97FAA7F1B1FA81F101F01F0149
:101E900006FA01F1084229D0FFF74EF9A0EB0A003B
:101EA000584502D90320BDE8F88F97FAA7F0B0FA99
:101EB00080F040F04000B6EB501F01D128680BE0E5
:101EC00097FAA7F0B0FA80F040F04000B7EB501F4F
:101ED00001D1286A00E0686A97FAA7F1B1FA81F1A6
:101EE00001F01F0106FA01F10842D5D1B8F1010F46
:101EF00003D1E86920F08050E861E069D0B36968F7
:101F000001F00C0108297DD04FF0807A4FF0007865
:101F1000022817D09AFAAAF0B0FA80F0800000F1F7
:101F2000844000F58400C0F80090FFF705F90446EE
:101F300098FAA8F0B0FA80F040F02000400975D07F
:101F400028688BE09AFAAAF0B0FA80F0800000F1DD
:101F5000844000F58400C0F80090FFF7EDF80746D4
:101F600098FAA8F0B0FA80F040F02000400902D0C2
:101F7000286801E099E0686A98FAA8F1B1FA81F15D
:101F800001F01F0106FA01F108421CD0FFF7D4F856
:101F9000C01B022802D90320BDE8F88F98FAA8F0E8
:101FA000B0FA80F040F02000400901D0286800E03D
:101FB000686A98FAA8F1B1FA81F101F01F0106FAF6
:101FC00001F10842E2D1216A606A0843696821F49C
:101FD0007411084368609AFAAAF0B0FA80F08000A1
:101FE00000F1844000F584000660FFF7A5F8044680
:101FF00098FAA8F0B0FA80F040F02000400902D032
:10200000286801E054E0686A98FAA8F1B1FA81F111
:1020100001F01F0106FA01F1084246D1FFF78CF8E2
:10202000001B022803D90320BDE8F88F15E098FAB9
:10203000A8F0B0FA80F040F02000400901D02968F3
:1020400000E0696A98FAA8F0B0FA80F000F01F008A
:1020500006FA00F00142E1D027E0686A98FAA8F198
:10206000B1FA81F101F01F0106FA01F108421CD01A
:10207000FFF762F8001B022802D90320BDE8F88FA1
:1020800098FAA8F0B0FA80F040F02000400901D0A2
:10209000296800E0696A98FAA8F0B0FA80F000F0C8
:1020A0001F0006FA00F00142E2D10020BDE8F88FDF
:1020B0000120BDE8F88F0000007000404FF0E021E3
:1020C000042804D0086920F00400086170470869FA
:1020D00040F004000861704770470000401EB0F1F6
:1020E000807F01D3012070474FF0E0214861044A0E
:1020F000F0201070002088610720086100207047E0
:1021000023ED00E010B5FFF7E7FF10BD7047704703
:1021100010B490F83820012A24D0012280F8382009
:1021200003685A68D3F808C0A3F18044B4F5963424
:1021300002D0B4F5006403D122F470024C6822434B
:1021400022F070020C6822432CF0800C896841EA6E
:102150000C015A6002689160002180F8381010BCB0
:102160000020704710BC0220704710B50446002CB8
:1021700003D094F8390010B107E0012010BD002011
:1021800084F83800204600F00DF8022084F8390069
:10219000211D206800F0CEFC012084F839000020C9
:1021A00010BD000008B500680B49884212D10B48E9
:1021B000C16941F01001C161C069002200F0100046
:1021C000009011463620FFF72FF8BDE80840362072
:1021D000FFF71EB808BD00000010004000100240CC
:1021E000704770B50446206801694FF0000511F092
:1021F000020F17D0C16811F0020F13D0E91E016160
:10220000012020762068806910F0030F03D020465B
:10221000FFF7E6FF05E0204600F09DF8204600F0BD
:102220009BF825762068016911F0040F18D0C16869
:1022300011F0040F14D06FF0040101610220207628
:102240002068806910F4407F03D02046FFF7C8FF64
:1022500005E0204600F07FF8204600F07DF8257666
:102260002068016911F0080F18D0C16811F0080F3B
:1022700014D06FF008010161042020762068C06945
:1022800010F0030F03D02046FFF7AAFF05E0204619
:1022900000F061F8204600F05FF8257620680169BB
:1022A00011F0100F18D0C16811F0100F14D06FF09A
:1022B00010010161082020762068C06910F4407F79
:1022C00003D02046FFF78CFF05E0204600F043F8DE
:1022D000204600F041F825762068016911F0010FD1
:1022E00009D0C16811F0010F05D06FF00101016143
:1022F000204600F032F82068016911F0800F09D003
:10230000C16811F0800F05D06FF080010161204697
:10231000FFF7FCFE2068016911F0400F09D0C16889
:1023200011F0400F05D06FF040010161204600F030
:1023300015F82068016911F0200F0BD0C16811F069
:10234000200F07D06FF0200101612046BDE87040EA
:10235000FFF7DDBE70BD704770477047704770472C
:10236000704770B504462068C16911F0010F09D0AB
:10237000016811F4807F05D001210162E06E40F018
:102380000100E0662068C16911F0020F09D0816880
:1023900011F0010F05D002210162E06E40F004004F
:1023A000E0662068C16911F0040F09D0816811F05E
:1023B000010F05D004210162E06E40F00200E066EA
:1023C0002068C16911F0080F09D0816811F0010F70
:1023D00005D008210162E06E40F00800E066206848
:1023E000C1694FF0200511F4801F0CD0816811F4F1
:1023F000800F08D0E903016284F8695084F86A50BC
:102400002046FFF7ACFF2068C16911F0200F06D00D
:10241000006810F0200F02D0204600F0D1FC2068A8
:10242000C16911F0800F06D0006810F0800F02D053
:10243000204600F041FE2068C16911F0400F06D02F
:10244000006810F0400F02D0204600F0ACFCE06EB7
:10245000002806D084F8695084F86A502046FFF7B7
:102460007FFF70BD10B50446002C03D094F86900BE
:1024700010B107E0012010BD002084F8680020465C
:1024800000F028F8242084F869002068016821F011
:1024900001010160204600F0D5FC012818D0606AD7
:1024A00010B1204600F09AFB2068416821F4904169
:1024B00041602068816821F02A01816020680168FC
:1024C00041F0010101602046BDE8104000F0F2BB80
:1024D000012010BD2DE9F047044600684A4A4B49E7
:1024E000022301250026802786B04FF0030C4FF011
:1024F00007084FF020094FF0100A90423DD1C869FB
:1025000040F40030C861C869CDF8108000F4003094
:1025100005900C208DE8291069464FF09040FEF799
:1025200013FD3C4D3A48C5E90006C5E902672E6136
:10253000C5E905692846EE61FEF7A6FC08B1FEF77D
:1025400069F965666C62344D3148C5E902672E61F0
:102550006E61AE611430EE61C5E9000A2846FEF7EF
:1025600093FC08B1FEF756F9256600221146262095
:102570006C62FEF759FE262040E0284A90423FD187
:10258000C86940F48020C861C869CDF8108000F4A3
:10259000802005904FF440608DE82910694620485E
:1025A000FEF7D2FC1A481F4D3C38C5E90006C5E9C4
:1025B00002672E61C5E905692846EE61FEF764FCF5
:1025C00008B1FEF727F965666C62174D1048C5E93A
:1025D00002672E616E61AE615038EE61C5E9000A96
:1025E0002846FEF751FC08B1FEF714F925660022D3
:1025F000114627206C62FEF717FE2720FEF708FE23
:1026000006B0BDE8F0870000004400400010024022
:102610006C00024068050020A4050020004800402E
:1026200000040048E00500201C06002037B50446E1
:10263000134694F86A00202802D003B0022030BD6F
:10264000019A42B33BB394F86800012826D00120D8
:1026500084F868006265A4F858300025E5662220F9
:1026600084F86A00616E0F488862616E0E48C86225
:10267000616E0E480863206800F12401606EFEF769
:1026800034FC2068816841F04001816084F8685022
:1026900003B0002030BD03B0012030BD03B00220E4
:1026A00030BD0000352D0008612D00080F2D0008F9
:1026B0007047704737B5044694F86900202802D067
:1026C00003B0022030BD0199002930D0002A2ED05D
:1026D00094F8680001282DD0012084F86800E16496
:1026E000A4F85020A4F852200025E566212084F8A3
:1026F0006900236E11489862236E1148D862236ED8
:10270000104818632068134600F1280C6246206EBA
:10271000FEF7EBFB2168402008622068816841F0E9
:102720008001816084F8685003B0002030BD03B0A0
:10273000012030BD03B0022030BD00006B2D000829
:102740009D2D00080F2D000870477047FEE7000020
:102750002DE9F04125480068406801274042C6B293
:10276000DFF88C800025234C3AE018F8010023782C
:1027700013B1012B31D103E0AB282ED3277003E036
:10278000030623D5AB2802D3A170E77025E080288B
:1027900022D1A07818F80010FF2908D0DF290DD029
:1027A000DC290FD0DD290DD0DA290BD014E04FF051
:1027B0009040416981F0400141610DE0E17800F015
:1027C00033FF09E0E17800F0F3FD05E0E078401C1C
:1027D000C0B2E070C82800D925706078401C6070D5
:1027E0006178B142C1D1BDE8F081000068050020E8
:1027F0004C030020380000204FF480720149024849
:10280000FFF714BF4C030020880400202DE9F04F8F
:102810005B4887B0416941F400114161416901F4AD
:1028200000110591416941F400214161416901F4C0
:1028300000210591416941F480014161416901F440
:1028400080010591416941F400314161416901F420
:1028500000310591416941F480214161416901F4F0
:1028600080210591416941F4801141614069DFF89F
:1028700014B100F48010059000224FF6D87158462C
:10288000FEF754FC4EF2FF37002239463E48FEF771
:102890004DFC40F20468002241463C48FEF746FCED
:1028A0004FF4FE59002249464FF09040FEF73EFC9F
:1028B0004FF2070A002251463548FEF737FC002246
:1028C0004FF67C713348FEF731FC042000240125CB
:1028D0008DE8310069465846FEF736FB1820009017
:1028E000CDE90154694658460394FEF72DFB4FF697
:1028F000C070022603948DE8610069465846FEF7D1
:1029000023FBCDE90264CDE9007569461E48FEF758
:102910001BFBCDE90264CDE9008569461B48FEF743
:1029200013FB0320CDE9000469464FF09040029468
:10293000FEF70AFBCDE90264CDE9009569464FF048
:102940009040FEF701FBCDE90264CDE900A56946A0
:102950000F48FEF7F9FA4FF47F4003948DE86100C9
:1029600069460C48FEF7F0FA7C200090CDE901544E
:10297000694608480394FEF7E7FA07B0BDE8F08F10
:1029800000100240001000480008004800140048F1
:1029900000040048000C00480C4810B50A490160CA
:1029A0004FF461214160002181600C22C160C0E9C7
:1029B00004128161C16101624162FFF753FD002889
:1029C00000D0FEE710BD0000004400408804002055
:1029D0000B4810B5094901600A4941600021816036
:1029E0000C22C160C0E904128161C16101624162CF
:1029F000FFF738FD002800D0FEE710BD004800407A
:102A0000F804002040420F00FEE7000000B585B04A
:102A10001020009000200190029069460448FEF7C3
:102A200093FAFDF7DFFDFFF7E7FE05B000BD0000FC
:102A30000008004870477047704710B5FEF782FBEA
:102A4000BDE81040FFF75EBB30B59FB00225012006
:102A5000049000951020059000244FF46010CDE9FB
:102A6000084007956846FEF7E5FE00B1FEE70F2037
:102A7000CDE919054FF48060CDE91B40022119A86A
:102A80001D94FEF75DFD00B1FEE706200A900D944F
:102A90000E940AA8FEF70EFC00B1FEE7FEF75EFEFC
:102AA0004FF47A71B0FBF1F0FFF718FB0420FFF749
:102AB00005FB00221146501EFEF7B6FB1FB030BDCD
:102AC0001448016841F4700101601348016841F045
:102AD000010101604168114A114041600168104ADA
:102AE00011400160016821F480210160416821F4F6
:102AF000FE014160C16A21F00F01C162016B094A08
:102B000011400163002181600249C00380390860DF
:102B10007047000088ED00E0001002400CC07FF814
:102B2000FFFFF6FECCFC00FF0148FFF75ABB000098
:102B30004C0400202DE9F0010268214CDFF884806C
:102B4000214FDFF888C0A04208D0B0F1804F05D0F7
:102B5000404503D0B84201D0604503D122F0700255
:102B60004B681A431A4B1B4D1B4EA0420ED0B0F1BE
:102B7000804F0BD0404509D0B84207D0604505D002
:102B8000984203D0A84201D0B04203D122F440724F
:102B9000CF683A4302608A68C2620A688262A042D1
:102BA00007D0604505D0984203D0A84201D0B0427A
:102BB00001D10969016301214161BDE8F00170475C
:102BC000002C014000040040000800400034014097
:102BD00000400140004401400048014090F82410AA
:102BE00011F0010F06D001684A68836A22F40032AE
:102BF0001A434A6090F8241011F0020F06D00168C1
:102C00004A68C36A22F480321A434A6090F824105A
:102C100011F0040F06D001684A68036B22F4802289
:102C20001A434A6090F8241011F0080F06D001688A
:102C30004A68436B22F400421A434A6090F8241019
:102C400011F0100F06D001688A68836B22F480525D
:102C50001A438A6090F8241011F0200F06D0016802
:102C60008A68C36B22F400521A438A6090F82410D9
:102C700011F0400F11D001684A68036C22F48012F1
:102C80001A434A60016CB1F5801F06D101684A6899
:102C9000436C22F4C0021A434A6090F8241011F0E9
:102CA000800F06D001684A68806C22F4002210432D
:102CB0004860704770B504460025E56620680068E6
:102CC00010F0080F0AD04FF47A7300224FF400116D
:102CD000204600F024FA08B1032070BD2068006887
:102CE00010F0040F0AD04FF47A7300224FF48001E1
:102CF000204600F014FA08B1032070BD202084F8AB
:102D0000690084F86A0084F86850002070BD10B52E
:102D1000406A0021A0F85A10A0F85210202180F833
:102D2000691080F86A10C16E41F01001C166FFF7AA
:102D300017FB10BD10B50146486A0968096811F013
:102D4000200F0AD10021A0F85A1001688A6822F0E9
:102D500040028A60202180F86A10FFF7A9FC10BDAC
:102D600010B5406AFFF7A5FC10BD10B50146486AD2
:102D70000968096811F0200F02D0FFF7E5FC10BDCB
:102D80000021A0F8521001688A6822F080028A604F
:102D90000068016841F04001016010BD10B5406A53
:102DA000FFF7D3FC10BD10B501680A6822F040029D
:102DB0000A60202180F86910FFF7C6FC002010BDD2
:102DC00010B5B0F85C2090F86A300168222B05D06D
:102DD000886940F008008861022010BD8368B3F55F
:102DE000805F01D103697BB1898C0A40416D4B1C26
:102DF00043650A70B0F85A10491E0904090CA0F87E
:102E00005A1009D0002010BD436D898C11401980E3
:102E1000416D891C4165EDE701680A6822F02002D6
:102E20000A6001680A6822F480720A6001688A6890
:102E300022F001028A60202180F86A10FFF738FC36
:102E4000002010BD70B50446102000210025236924
:102E5000A268D4F81CC01A43636943EA0C03134305
:102E60002268D2F800C02CF4037C2CF4144C4CEAF9
:102E70000303136022685368D4F80CC023F4405352
:102E800043EA0C035360236AA26913432268D2F811
:102E900008C02CF4306C4CEA030393602268834B27
:102EA000A2F1804CBCF59C3C0CD01CF5744C1CD0A1
:102EB000BCF5806C2FD0BCF5806C42D0BCF5806C2A
:102EC00055D069E01B6B13F0030306D0012B08D02B
:102ED000022B08D0032B5FD101E001205CE002202F
:102EE0005AE0042058E0082056E01B6B13F44033EE
:102EF00009D0B3F5803F0AD0B3F5003F09D0B3F550
:102F0000403F49D101E0002046E0022044E0042097
:102F100042E0082040E01B6B13F4402309D0B3F5D6
:102F2000802F0AD0B3F5002F09D0B3F5402F33D14D
:102F300001E0002030E002202EE004202CE00820F8
:102F40002AE01B6B13F4401309D0B3F5801F0AD09D
:102F5000B3F5001F09D0B3F5401F1DD101E00020DB
:102F60001AE0022018E0042016E0082014E01B6B91
:102F700013F4400309D0B3F5800F0AD0B3F5000F66
:102F800009D0B3F5400F07D101E0002004E0022092
:102F900002E0042000E00820E369B3F5004F08D008
:102FA00009287FD2DFE800F046525E7E677E7E7E93
:102FB0007400092835D2DFE800F0050F19342134F8
:102FC00034342B00FEF7D0FB4100606801EB500168
:102FD000B1FBF0F081B225E0FEF7DCFB4100606858
:102FE00001EB5001B1FBF0F081B21BE030496068A9
:102FF00001EB5001B1FBF0F081B213E0FEF7E0FB12
:103000004100606801EB5001B1FBF0F081B209E0D2
:1030100060684FF4803101EB5001B1FBF0F081B2F8
:1030200000E0012521F00F00C1F3420108432168AF
:10303000C86038E0FEF798FB0146606801EB50017C
:10304000B1FBF0F0216880B2C8602CE0FEF7A2FB73
:103050000146606801EB5001B1FBF0F0216880B2DD
:10306000C86020E01349606801EB5001B1FBF0F04B
:1030700080B2D06017E0FEF7A3FB0146606801EB69
:103080005001B1FBF0F0216880B2C8600BE009E0AC
:1030900060684FF4004101EB5001B1FBF0F080B2E9
:1030A000D06000E00125284670BD000000100240FD
:1030B0000024F40000127A0090F86910212901D050
:1030C00002207047B0F8521021B18168B1F5805FDD
:1030D0000CD00DE001680A6822F080020A600068E6
:1030E000016841F04001016000207047016961B151
:1030F000C16C4A1CC264026809781185B0F852108C
:10310000491EA0F8521000207047C16C026809885F
:10311000C1F308011185C16C891CC164EEE72DE97A
:10312000F04704460E4692461D46FEF705F8074650
:103130004FF000094FF02008BAF1000F05D02068C9
:10314000C06936EA000031D05BE02068C06936EA29
:10315000000056D0B5F1FF3F22D025B1FDF7ECFFBE
:10316000C01BA8421CD92068016821F080010160C1
:103170002068016821F0200101602068016821F4C5
:10318000807101602068816821F00101816084F80C
:10319000698084F86A8084F868900320BDE8F0872D
:1031A0002068C06936EA0000D4D12AE0B5F1FF3FBB
:1031B00022D025B1FDF7C0FFC01BA8421CD9206852
:1031C000016821F0800101602068016821F0200180
:1031D00001602068016821F48071016020688168C5
:1031E00021F00101816084F8698084F86A8084F8A4
:1031F00068900320BDE8F0872068C06936EA0000C7
:10320000D4D00020BDE8F0870148FFF7AAB800003D
:10321000880400200148FFF7A4B80000F80400204B
:10322000FEE702E008C8121F08C1002AFAD1704761
:103230007047002001E001C1121F002AFBD1704736
:103240000EB5FDF787FFFFF7FFFBFFF7DFFA264814
:10325000416941F0010141614069002200F0010033
:10326000009011460C20FDF7DFFF0C20FDF7D0FF8A
:10327000002211460D20FDF7D7FF0D20FDF7C8FFF6
:10328000002211461020FDF7CFFF1020FDF7C0FFF0
:10329000002211461120FDF7C7FF1120FDF7B8FFEE
:1032A00013481249002401604821C0E9011442F288
:1032B0000F71C160FEF759FF00B1FEE70094694647
:1032C0000B480294FEF724FF00B1FEE7FFF764FB12
:1032D000FFF77EFBFFF79AFBFCF786FFFDF71EF971
:1032E000FFF736FAFAE70000001002400010004035
:1032F0004C0400200E490A5C5306421C51FA82F22B
:10330000127843EA8243821C51FA82F2127843EA2D
:10331000C223C21C51FA82F21278001D43EA021243
:1033200051FA80F0007842EAD00000EE100A7047AF
:103330004C0000200E490A5C5306421C51FA82F2EE
:10334000127843EA8243821C51FA82F2127843EAED
:10335000C223C21C51FA82F21278001D43EA021203
:1033600051FA80F0007842EAD00000EE100A70476F
:103370004C0300200D490A5C5306421C51FA82F2AC
:10338000127843EA8243821C51FA82F2127843EAAD
:10339000C223C21C51FA82F21278001D43EA0212C3
:1033A00051FA80F0007842EAD00070474C030020C8
:1033B0002DE9F04F0A46DFF86C8283182DED028B61
:1033C00085B018F80050A3F1010B431C03930021B2
:1033D000841C931EAE46DA2D07D0DC2D05D0DD2DE2
:1033E0005AD1092A58D10022FFE0C51D00F1170764
:1033F00000F1110900F10C0600F1160A1D2A03D094
:103400001E2A49D100227CE0002209E000EB020CD8
:1034100058FA8CFC9CF800C0521C8CEA0101D2B214
:103420009A42F3DD01F07F0158FA8BF00078814277
:1034300032D1C346BEF1DC0F33D04FF00008F8B2F2
:10344000FFF778FFB0EE408A09F0FF00FFF792FF28
:103450000090F0B2FFF78EFF0290E8B2FFF78AFF0C
:103460008346E0B2FFF786FF01466E4850FA8AF0C5
:1034700002780192B0EE480A5A464046029BFCF799
:103480003BFF10B10120FDF7A7F908F1010000F0A2
:10349000FF08B8F10F0FD2D905B0BDEC028BBDE823
:1034A000F08FF8B2FFF746FFB0EE408A09F0FF0058
:1034B000FFF760FF0746F0B2FFF75CFF0646E8B291
:1034C000FFF758FF0546E0B2FFF754FF01465BFAED
:1034D0008AF21278CDE90072039A5BFA82F00078E2
:1034E000B0EE480A33462A46FCF706FFD4E700EB65
:1034F000020C58FA8CFC9CF800C0521C8CEA0101AA
:10350000D2B29A42F3DD01F07F0258FA8BF10978CA
:103510008A42C1D100F11C0BBEF1DC0F33D04FF059
:103520000008F8B2FFF706FFB0EE408A09F0FF008E
:10353000FFF720FF0090F0B2FFF71CFF0390E8B206
:10354000FFF718FF0490E0B2FFF714FF014635487B
:1035500050FA8BF31B7850FA8AF00278CDE90123F8
:10356000DDE90332B0EE480A4046FCF725FF10B112
:103570000120FDF731F908F1010000F0FF08B8F172
:103580000F0FCED988E7F8B2FFF7D4FEB0EE408A2D
:1035900009F0FF00FFF7EEFE0746F0B2FFF7EAFE84
:1035A0000646E8B2FFF7E6FE0546E0B2FFF7E2FEA8
:1035B00001461C4850FA8BF2127850FA8AF31B78B5
:1035C0000097CDE90132039A50FA82F00078B0EE0C
:1035D000480A33462A46FCF7EFFE5DE7851858FA9D
:1035E00085F52D786940521CD2B29A42F6DD01F081
:1035F0007F0258FA8BF109788A42C3D1C01CC0B24D
:10360000FFF7B8FE024658FA84F00178039858FA9A
:1036100080F0007805B0BDEC028BBDE8F04FFCF700
:1036200033BF00004C030020F0B41A4D00232A5C85
:10363000DF2A2CD100228E1E06E0841855FA84F46D
:1036400024786340521CD2B2B242F6DD04291ED166
:1036500003F07F02C11C55FA81F109788A4216D124
:10366000811C55FA81F2127802F0040355FA81F2B6
:10367000127802F0020255FA81F10978401C01F03B
:10368000010155FA80F00078F0BCFCF7B5BFF0BC42
:10369000704700004C0300202DE9F0410446002053
:1036A000394D13291FD1394B621C53FA82F212781B
:1036B0002F78BA4217D100228E1E09E004EB020CCB
:1036C00053FA8CFC9CF800C0521C8CEA0000D2B269
:1036D000B242F3DD00F07F026018401E53FA80F022
:1036E0000078824205D0A86840F00200A860BDE8DA
:1036F000F081A86840F00100A860A01C53FA80F097
:10370000214E07EB470101EBC7010C3606EB8101A7
:1037100000780872E01CC0B21A5C5706421C53FACB
:1037200082F2127847EA8247821C53FA82F21278B8
:1037300047EAC227C21C53FA82F21278001D47EAF8
:10374000021253FA80F0007842EAD000486004F197
:103750000800C0B2FFF7CEFD28780D3400EB400121
:1037600001EBC00006EB800080ED030AE0B2FFF73A
:10377000C1FD287800EB400101EBC00006EB8000A2
:1037800080ED040AB3E70000000000204C00002098
:10379000064A00F07F011046D37880780BB1044BC5
:1037A00000E0044B1954401C90707047000000204A
:1037B0004C0200204C01002030B50F4B10EE100AD7
:1037C0001946DA7889787F244FEA50650AB10B4AA6
:1037D00000E00B4A55540A44C0F386455570C0F3C7
:1037E000C6259570C0F30615D57004EAC0001071A7
:1037F000491D997030BD0000000000204C020020DF
:103800004C010020F0B5410E0C4E7F25C0F38644DC
:10381000C0F3C623C0F3061205EAC0053046F778A8
:1038200080780FB1064F00E0064F39543918401D1B
:103830004C708B70CA700D71B070F0BD000000202C
:103840004C0200204C01002070B50D4C8023204616
:10385000E6788078411CCAB200253EB109490B5474
:10386000A2700948FEF726FFE57007E007490B54F0
:10387000A2700548FEF71EFF0120E070A57070BD24
:10388000000000204C020020F80400204C01002021
:103890000000000000000000010203040607080900
:1038A00000000000010203040203040506070809E2
:1038B0000A0B0C0D0E0F1010010203040506070879
:1038C000090A0B0C0D0E0F10E8380008000000204C
:1038D0004C00000022320008343900084C0000205F
:1038E0000C0A000032320008FF0000000000000057
:1038F00000000000080000000000000000000000C0
:103900000000000000000000002000100040000047
:10391000000400480004004800040048680000005B
:1039200000000000000000000000000000127A000B
:043930000000000093
:040000050800018965
:00000001FF
